{
  "contractName": "SupplyChain",
  "abi": [
    {
      "constant": true,
      "inputs": [],
      "name": "owner",
      "outputs": [
        {
          "name": "",
          "type": "address"
        }
      ],
      "payable": false,
      "stateMutability": "view",
      "type": "function",
      "signature": "0x8da5cb5b"
    },
    {
      "constant": true,
      "inputs": [
        {
          "name": "",
          "type": "uint256"
        }
      ],
      "name": "items",
      "outputs": [
        {
          "name": "name",
          "type": "string"
        },
        {
          "name": "sku",
          "type": "uint256"
        },
        {
          "name": "price",
          "type": "uint256"
        },
        {
          "name": "state",
          "type": "uint256"
        },
        {
          "name": "seller",
          "type": "address"
        },
        {
          "name": "buyer",
          "type": "address"
        }
      ],
      "payable": false,
      "stateMutability": "view",
      "type": "function",
      "signature": "0xbfb231d2"
    },
    {
      "inputs": [],
      "payable": false,
      "stateMutability": "nonpayable",
      "type": "constructor",
      "signature": "constructor"
    },
    {
      "anonymous": false,
      "inputs": [
        {
          "indexed": false,
          "name": "sku",
          "type": "uint256"
        }
      ],
      "name": "ForSale",
      "type": "event",
      "signature": "0xa96ae0fc3224ebd79eebfe54bd130cc9cb94416cddd1f2386115e00b72532468"
    },
    {
      "anonymous": false,
      "inputs": [
        {
          "indexed": false,
          "name": "sku",
          "type": "uint256"
        }
      ],
      "name": "Sold",
      "type": "event",
      "signature": "0x92f64ca637d023f354075a4be751b169c1a8a9ccb6d33cdd0cb3520543995727"
    },
    {
      "anonymous": false,
      "inputs": [
        {
          "indexed": false,
          "name": "sku",
          "type": "uint256"
        }
      ],
      "name": "Shipped",
      "type": "event",
      "signature": "0xf00b9a5725b80c54016f42114f6ed7792d22eecb116011c4afac29c57bef6c95"
    },
    {
      "anonymous": false,
      "inputs": [
        {
          "indexed": false,
          "name": "sku",
          "type": "uint256"
        }
      ],
      "name": "Received",
      "type": "event",
      "signature": "0xa8142743f8f70a4c26f3691cf4ed59718381fb2f18070ec52be1f1022d855557"
    },
    {
      "constant": false,
      "inputs": [
        {
          "name": "_name",
          "type": "string"
        },
        {
          "name": "_price",
          "type": "uint256"
        }
      ],
      "name": "addItem",
      "outputs": [
        {
          "name": "",
          "type": "bool"
        }
      ],
      "payable": false,
      "stateMutability": "nonpayable",
      "type": "function",
      "signature": "0x62d6bbdf"
    },
    {
      "constant": false,
      "inputs": [
        {
          "name": "sku",
          "type": "uint256"
        }
      ],
      "name": "buyItem",
      "outputs": [],
      "payable": true,
      "stateMutability": "payable",
      "type": "function",
      "signature": "0xe7fb74c7"
    },
    {
      "constant": false,
      "inputs": [
        {
          "name": "sku",
          "type": "uint256"
        }
      ],
      "name": "shipItem",
      "outputs": [],
      "payable": false,
      "stateMutability": "nonpayable",
      "type": "function",
      "signature": "0xf61c899a"
    },
    {
      "constant": false,
      "inputs": [
        {
          "name": "sku",
          "type": "uint256"
        }
      ],
      "name": "receiveItem",
      "outputs": [],
      "payable": false,
      "stateMutability": "nonpayable",
      "type": "function",
      "signature": "0xa26be999"
    },
    {
      "constant": true,
      "inputs": [
        {
          "name": "_sku",
          "type": "uint256"
        }
      ],
      "name": "fetchItem",
      "outputs": [
        {
          "name": "name",
          "type": "string"
        },
        {
          "name": "sku",
          "type": "uint256"
        },
        {
          "name": "price",
          "type": "uint256"
        },
        {
          "name": "state",
          "type": "uint256"
        },
        {
          "name": "seller",
          "type": "address"
        },
        {
          "name": "buyer",
          "type": "address"
        }
      ],
      "payable": false,
      "stateMutability": "view",
      "type": "function",
      "signature": "0xad4b9cfb"
    }
  ],
  "bytecode": "0x608060405234801561001057600080fd5b50336000806101000a81548173ffffffffffffffffffffffffffffffffffffffff021916908373ffffffffffffffffffffffffffffffffffffffff160217905550600060018190555061112e806100686000396000f3fe608060405260043610610083576000357c0100000000000000000000000000000000000000000000000000000000900463ffffffff16806362d6bbdf146100885780638da5cb5b14610172578063a26be999146101c9578063ad4b9cfb14610204578063bfb231d214610333578063e7fb74c714610462578063f61c899a14610490575b600080fd5b34801561009457600080fd5b50610158600480360360408110156100ab57600080fd5b81019080803590602001906401000000008111156100c857600080fd5b8201836020820111156100da57600080fd5b803590602001918460018302840111640100000000831117156100fc57600080fd5b91908080601f016020809104026020016040519081016040528093929190818152602001838380828437600081840152601f19601f820116905080830192505050505050509192919290803590602001909291905050506104cb565b604051808215151515815260200191505060405180910390f35b34801561017e57600080fd5b50610187610665565b604051808273ffffffffffffffffffffffffffffffffffffffff1673ffffffffffffffffffffffffffffffffffffffff16815260200191505060405180910390f35b3480156101d557600080fd5b50610202600480360360208110156101ec57600080fd5b810190808035906020019092919050505061068a565b005b34801561021057600080fd5b5061023d6004803603602081101561022757600080fd5b8101908080359060200190929190505050610876565b60405180806020018781526020018681526020018581526020018473ffffffffffffffffffffffffffffffffffffffff1673ffffffffffffffffffffffffffffffffffffffff1681526020018373ffffffffffffffffffffffffffffffffffffffff1673ffffffffffffffffffffffffffffffffffffffff168152602001828103825288818151815260200191508051906020019080838360005b838110156102f35780820151818401526020810190506102d8565b50505050905090810190601f1680156103205780820380516001836020036101000a031916815260200191505b5097505050505050505060405180910390f35b34801561033f57600080fd5b5061036c6004803603602081101561035657600080fd5b8101908080359060200190929190505050610a09565b60405180806020018781526020018681526020018581526020018473ffffffffffffffffffffffffffffffffffffffff1673ffffffffffffffffffffffffffffffffffffffff1681526020018373ffffffffffffffffffffffffffffffffffffffff1673ffffffffffffffffffffffffffffffffffffffff168152602001828103825288818151815260200191508051906020019080838360005b83811015610422578082015181840152602081019050610407565b50505050905090810190601f16801561044f5780820380516001836020036101000a031916815260200191505b5097505050505050505060405180910390f35b61048e6004803603602081101561047857600080fd5b8101908080359060200190929190505050610b1d565b005b34801561049c57600080fd5b506104c9600480360360208110156104b357600080fd5b8101908080359060200190929190505050610e70565b005b60007fa96ae0fc3224ebd79eebfe54bd130cc9cb94416cddd1f2386115e00b725324686001546040518082815260200191505060405180910390a160c06040519081016040528084815260200160015481526020018381526020016000600381111561053357fe5b81526020013373ffffffffffffffffffffffffffffffffffffffff168152602001600073ffffffffffffffffffffffffffffffffffffffff1681525060026000600154815260200190815260200160002060008201518160000190805190602001906105a092919061105d565b5060208201518160010155604082015181600201556060820151816003015560808201518160040160006101000a81548173ffffffffffffffffffffffffffffffffffffffff021916908373ffffffffffffffffffffffffffffffffffffffff16021790555060a08201518160050160006101000a81548173ffffffffffffffffffffffffffffffffffffffff021916908373ffffffffffffffffffffffffffffffffffffffff16021790555090505060018054016001819055506001905092915050565b6000809054906101000a900473ffffffffffffffffffffffffffffffffffffffff1681565b338073ffffffffffffffffffffffffffffffffffffffff163373ffffffffffffffffffffffffffffffffffffffff16141515610754576040517f08c379a00000000000000000000000000000000000000000000000000000000081526004018080602001828103825260228152602001807f416821206c6f6f6b73206c696b6520796f752061726520616e20696d706f737481526020017f657200000000000000000000000000000000000000000000000000000000000081525060400191505060405180910390fd5b816002600381111561076257fe5b6002600083815260200190815260200160002060030154141515610814576040517f08c379a000000000000000000000000000000000000000000000000000000000815260040180806020018281038252603e8152602001807f57652061706f6c6f67697a652c20746865206974656d2068617320616c72656181526020017f6479206265656e2073686970706564206279207468652073656c6c65722e000081525060400191505060405180910390fd5b60038081111561082057fe5b60026000858152602001908152602001600020600301819055507fa8142743f8f70a4c26f3691cf4ed59718381fb2f18070ec52be1f1022d855557836040518082815260200191505060405180910390a1505050565b60606000806000806000600260008881526020019081526020016000206000018054600181600116156101000203166002900480601f01602080910402602001604051908101604052809291908181526020018280546001816001161561010002031660029004801561092a5780601f106108ff5761010080835404028352916020019161092a565b820191906000526020600020905b81548152906001019060200180831161090d57829003601f168201915b505050505095506002600088815260200190815260200160002060010154945060026000888152602001908152602001600020600201549350600260008881526020019081526020016000206003015492506002600088815260200190815260200160002060040160009054906101000a900473ffffffffffffffffffffffffffffffffffffffff1691506002600088815260200190815260200160002060050160009054906101000a900473ffffffffffffffffffffffffffffffffffffffff16905085858585858595509550955095509550955091939550919395565b6002602052806000526040600020600091509050806000018054600181600116156101000203166002900480601f016020809104026020016040519081016040528092919081815260200182805460018160011615610100020316600290048015610ab55780601f10610a8a57610100808354040283529160200191610ab5565b820191906000526020600020905b815481529060010190602001808311610a9857829003601f168201915b5050505050908060010154908060020154908060030154908060040160009054906101000a900473ffffffffffffffffffffffffffffffffffffffff16908060050160009054906101000a900473ffffffffffffffffffffffffffffffffffffffff16905086565b8060006003811115610b2b57fe5b6002600083815260200190815260200160002060030154141515610bdd576040517f08c379a000000000000000000000000000000000000000000000000000000000815260040180806020018281038252602f8152602001807f57652061706f6c6f67697a652c20746865206974656d206973206e6f7420666f81526020017f722073616c6520616e796d6f72652e000000000000000000000000000000000081525060400191505060405180910390fd5b6002600083815260200190815260200160002060020154803410151515610cb8576040517f08c379a00000000000000000000000000000000000000000000000000000000081526004018080602001828103825260458152602001807f416c61732120746865206974656d20776f756c642068617665206265656e207981526020017f6f7572732c2068616420796f75206265656e207061696420656e6f756768206181526020017f6d6f756e7400000000000000000000000000000000000000000000000000000081525060600191505060405180910390fd5b826002600085815260200190815260200160002060040160009054906101000a900473ffffffffffffffffffffffffffffffffffffffff1673ffffffffffffffffffffffffffffffffffffffff166108fc60026000878152602001908152602001600020600201549081150290604051600060405180830381858888f19350505050158015610d4b573d6000803e3d6000fd5b50336002600086815260200190815260200160002060050160006101000a81548173ffffffffffffffffffffffffffffffffffffffff021916908373ffffffffffffffffffffffffffffffffffffffff16021790555060016003811115610dae57fe5b60026000868152602001908152602001600020600301819055507f92f64ca637d023f354075a4be751b169c1a8a9ccb6d33cdd0cb3520543995727846040518082815260200191505060405180910390a1600060026000838152602001908152602001600020600201549050600081340390503373ffffffffffffffffffffffffffffffffffffffff166108fc829081150290604051600060405180830381858888f19350505050158015610e67573d6000803e3d6000fd5b50505050505050565b338073ffffffffffffffffffffffffffffffffffffffff163373ffffffffffffffffffffffffffffffffffffffff16141515610f3a576040517f08c379a00000000000000000000000000000000000000000000000000000000081526004018080602001828103825260228152602001807f416821206c6f6f6b73206c696b6520796f752061726520616e20696d706f737481526020017f657200000000000000000000000000000000000000000000000000000000000081525060400191505060405180910390fd5b8160016003811115610f4857fe5b6002600083815260200190815260200160002060030154141515610ffa576040517f08c379a00000000000000000000000000000000000000000000000000000000081526004018080602001828103825260258152602001807f57652061706f6c6f67697a652c20746865206974656d20686173206265656e2081526020017f736f6c642e00000000000000000000000000000000000000000000000000000081525060400191505060405180910390fd5b6002600381111561100757fe5b60026000858152602001908152602001600020600301819055507ff00b9a5725b80c54016f42114f6ed7792d22eecb116011c4afac29c57bef6c95836040518082815260200191505060405180910390a1505050565b828054600181600116156101000203166002900490600052602060002090601f016020900481019282601f1061109e57805160ff19168380011785556110cc565b828001600101855582156110cc579182015b828111156110cb5782518255916020019190600101906110b0565b5b5090506110d991906110dd565b5090565b6110ff91905b808211156110fb5760008160009055506001016110e3565b5090565b9056fea165627a7a723058207b4d35ec4daa61f62f72fd8a8508d46f6acfecfc0f018a7fb784bcf03bf5e11c0029",
  "source": "/*\n    This exercise has been updated to use Solidity version 0.5\n    Breaking changes from 0.4 to 0.5 can be found here: \n    https://solidity.readthedocs.io/en/v0.5.0/050-breaking-changes.html\n*/\n\npragma solidity ^0.5.0;\n\ncontract SupplyChain {\n\n    /* set owner */\n    address public owner;\n\n    /* Add a variable called skuCount to track the most recent sku # */\n    uint private skuCount;\n\n    /* Add a line that creates a public mapping that maps the SKU (a number) to an Item.\n        Call this mappings items\n    */\n    mapping (uint => Item) public items;\n\n    /* Add a line that creates an enum called State. This should have 4 states\n      ForSale\n      Sold\n      Shipped\n      Received\n      (declaring them in this order is important for testing)\n    */\n    enum State { ForSale, Sold, Shipped, Received }\n\n    /* Create a struct named Item.\n      Here, add a name, sku, price, state, seller, and buyer\n      We've left you to figure out what the appropriate types are,\n      if you need help you can ask around :)\n    */\n    struct Item { // Struct\n        string name;\n        uint sku;\n        uint price;\n        uint state;\n        address payable seller;\n        address payable buyer;\n    }\n    /* Create 4 events with the same name as each possible State (see above)\n      Each event should accept one argument, the sku*/\n    event ForSale(uint sku);\n    event Sold(uint sku);\n    event Shipped(uint sku);\n    event Received(uint sku);\n\n    /* Create a modifer that checks if the msg.sender is the owner of the contract */\n    modifier isOwner() {\n        require (msg.sender == owner, \"We apologize, you are not allowed to execute this function\");\n        _;\n    }    \n\n    modifier verifyCaller (address _address) {require (msg.sender == _address, \"Ah! looks like you are an imposter\"); _;}\n\n    modifier paidEnough(uint _price) {require(msg.value >= _price, \"Alas! the item would have been yours, had you been paid enough amount\"); _;}\n    modifier checkValue(uint _sku) {\n        //refund them after pay for item (why it is before, _ checks for logic before func)\n        _;\n        uint _price = items[_sku].price;\n        uint amountToRefund = msg.value - _price;\n        msg.sender.transfer(amountToRefund);\n    }\n\n    /* For each of the following modifiers, use what you learned about modifiers\n    to give them functionality. For example, the forSale modifier should require\n    that the item with the given sku has the state ForSale. */\n    modifier forSale(uint sku) {\n        require (items[sku].state == uint(State.ForSale), \"We apologize, the item is not for sale anymore.\");\n        _;      \n    }\n    modifier sold(uint sku) {\n        require (items[sku].state == uint(State.Sold), \"We apologize, the item has been sold.\");\n        _;      \n    }\n    modifier shipped(uint sku) {\n        require (items[sku].state == uint(State.Shipped), \"We apologize, the item has already been shipped by the seller.\");\n        _;      \n    }\n    modifier received(uint sku) {\n        require (items[sku].state == uint(State.Received), \"We apologize, the item has already been received by the buyer.\");\n        _;      \n    }\n\n    constructor() public {\n      /* Here, set the owner as the person who instantiated the contract\n        and set your skuCount to 0. */\n        owner = msg.sender;\n        skuCount = 0;\n    }\n\n    function addItem(string memory _name, uint _price) public returns(bool){\n        emit ForSale(skuCount);\n        items[skuCount] = Item({name: _name, sku: skuCount, price: _price, state: uint(State.ForSale), seller: msg.sender, buyer: address(0)});\n        skuCount = skuCount + 1;\n        return true;\n    }\n\n    /* Add a keyword so the function can be paid. This function should transfer money\n      to the seller, set the buyer as the person who called this transaction, and set the state\n      to Sold. Be careful, this function should use 3 modifiers to check if the item is for sale,\n      if the buyer paid enough, and check the value after the function is called to make sure the buyer is\n      refunded any excess ether sent. Remember to call the event associated with this function!*/\n\n    function buyItem(uint sku)\n      public\n      payable\n      forSale(sku)\n      paidEnough(items[sku].price)\n      checkValue(sku)\n    {\n        //check if the item is for sale (calling modifier: forSale)         \n        //check if the buyer paid enough (calling modified: paidEnough)\n        //require(msg.sender.balance < items[sku].price, \"You don't have sufficient funds in your account\");\n\n        //transfer money to the seller\n        items[sku].seller.transfer(items[sku].price);\n\n        //set the buyer as the person who called this transaction\n        items[sku].buyer = msg.sender;\n\n        //set the state to Sold\n        items[sku].state = uint(State.Sold);\n\n        //check the value after the function is called to make sure the buyer is refunded any excess ether sent\n\n        //call the event associated with this function\n        emit Sold(sku);\n    }\n\n    /* Add 2 modifiers to check if the item is sold already, and that the person calling this function\n    is the seller. Change the state of the item to shipped. Remember to call the event associated with this function!*/\n    function shipItem(uint sku)\n      public\n      verifyCaller(msg.sender)\n      sold(sku)      \n    {\n        //check the person calling this function is the seller\n        //check if the item is sold already\n\n        items[sku].state = uint(State.Shipped);\n        emit Shipped(sku);\n    }\n\n    /* Add 2 modifiers to check if the item is shipped already, and that the person calling this function\n    is the buyer. Change the state of the item to received. Remember to call the event associated with this function!*/\n    function receiveItem(uint sku)\n      public\n      verifyCaller(msg.sender)\n      shipped(sku)\n    {\n        items[sku].state = uint(State.Received);\n        emit Received(sku);\n    }\n\n    /* We have these functions completed so we can run tests, just ignore it :) */\n    function fetchItem(uint _sku) public view returns (string memory name, uint sku, uint price, uint state, address seller, address buyer) {\n        name = items[_sku].name;\n        sku = items[_sku].sku;\n        price = items[_sku].price;\n        state = uint(items[_sku].state);\n        seller = items[_sku].seller;\n        buyer = items[_sku].buyer;\n        return (name, sku, price, state, seller, buyer);\n    }\n\n}\n",
  "sourcePath": "/Users/waqasa/Documents/Consensys/supply-chain-wakqasahmed/contracts/SupplyChain.sol",
  "compiler": {
    "name": "solc",
    "version": "0.5.0+commit.1d4f565a.Emscripten.clang"
  },
  "schemaVersion": "3.0.1",
  "updatedAt": "2019-01-23T21:26:14.380Z",
  "devdoc": {
    "methods": {}
  },
  "userdoc": {
    "methods": {}
  }
}